{
  "transactions": [
    {
      "hash": "0xe2beb96bc7e493b370ed221f1ee10380de0ecb7fff18cd96d3a524597a3b81a9",
      "transactionType": "CALL",
      "contractName": null,
      "contractAddress": "0x1e8f843b32c121675a32894d2d85d905857d8dad",
      "function": "mint(address,uint256,uint256,bytes)",
      "arguments": [
        "0xd48bD608f4C35a7dFb2cA93BbF8D8495e84835A5",
        "1",
        "100",
        "0x"
      ],
      "transaction": {
        "from": "0xd48bd608f4c35a7dfb2ca93bbf8d8495e84835a5",
        "to": "0x1e8f843b32c121675a32894d2d85d905857d8dad",
        "gas": "0x123eb",
        "value": "0x0",
        "input": "0x731133e9000000000000000000000000d48bd608f4c35a7dfb2ca93bbf8d8495e84835a50000000000000000000000000000000000000000000000000000000000000001000000000000000000000000000000000000000000000000000000000000006400000000000000000000000000000000000000000000000000000000000000800000000000000000000000000000000000000000000000000000000000000000",
        "nonce": "0x5",
        "chainId": "0x1935"
      },
      "additionalContracts": [],
      "isFixedGasLimit": false
    },
    {
      "hash": "0x7e96212551cc831df909ebb41ddf52fe47fff5441bc622078ed9fdddaffff5e1",
      "transactionType": "CALL",
      "contractName": null,
      "contractAddress": "0x1e8f843b32c121675a32894d2d85d905857d8dad",
      "function": "setApprovalForAll(address,bool)",
      "arguments": [
        "0x1E8F843B32C121675A32894D2D85D905857D8Dad",
        "true"
      ],
      "transaction": {
        "from": "0xd48bd608f4c35a7dfb2ca93bbf8d8495e84835a5",
        "to": "0x1e8f843b32c121675a32894d2d85d905857d8dad",
        "gas": "0xf998",
        "value": "0x0",
        "input": "0xa22cb4650000000000000000000000001e8f843b32c121675a32894d2d85d905857d8dad0000000000000000000000000000000000000000000000000000000000000001",
        "nonce": "0x6",
        "chainId": "0x1935"
      },
      "additionalContracts": [],
      "isFixedGasLimit": false
    },
    {
      "hash": "0xcecc67485752e8921b6a62eb882b8c2d7310c3e723815dc14d4c15f85462689e",
      "transactionType": "CALL",
      "contractName": null,
      "contractAddress": "0x1e8f843b32c121675a32894d2d85d905857d8dad",
      "function": "createShipment(int256,int256,uint256,address,uint256,uint256,uint256,uint256)",
      "arguments": [
        "150",
        "100",
        "600",
        "0xd48bD608f4C35a7dFb2cA93BbF8D8495e84835A5",
        "1",
        "50",
        "1764802126",
        "0"
      ],
      "transaction": {
        "from": "0xd48bd608f4c35a7dfb2ca93bbf8d8495e84835a5",
        "to": "0x1e8f843b32c121675a32894d2d85d905857d8dad",
        "gas": "0x5126a",
        "value": "0x0",
        "input": "0x01ee6899000000000000000000000000000000000000000000000000000000000000009600000000000000000000000000000000000000000000000000000000000000640000000000000000000000000000000000000000000000000000000000000258000000000000000000000000d48bd608f4c35a7dfb2ca93bbf8d8495e84835a500000000000000000000000000000000000000000000000000000000000000010000000000000000000000000000000000000000000000000000000000000032000000000000000000000000000000000000000000000000000000006930be4e0000000000000000000000000000000000000000000000000000000000000000",
        "nonce": "0x7",
        "chainId": "0x1935"
      },
      "additionalContracts": [],
      "isFixedGasLimit": false
    }
  ],
  "receipts": [
    {
      "status": "0x1",
      "cumulativeGasUsed": "0x321f1ce",
      "logs": [
        {
          "address": "0x1e8f843b32c121675a32894d2d85d905857d8dad",
          "topics": [
            "0xc3d58168c5ae7397731d063d5bbf3d657854427343f4c083240f7aacaa2d0f62",
            "0x000000000000000000000000d48bd608f4c35a7dfb2ca93bbf8d8495e84835a5",
            "0x0000000000000000000000000000000000000000000000000000000000000000",
            "0x000000000000000000000000d48bd608f4c35a7dfb2ca93bbf8d8495e84835a5"
          ],
          "data": "0x00000000000000000000000000000000000000000000000000000000000000010000000000000000000000000000000000000000000000000000000000000064",
          "blockHash": "0xde2cd232dd5a1d2f865c2a291f6f46424aa5894f4cee25c92a9d06f91a21d71a",
          "blockNumber": "0x252d48d",
          "transactionHash": "0xe2beb96bc7e493b370ed221f1ee10380de0ecb7fff18cd96d3a524597a3b81a9",
          "transactionIndex": "0x0",
          "logIndex": "0x0",
          "removed": false
        }
      ],
      "logsBloom": "0x00000000000000000000000008000000000000000000000000000080000000000000000000000000000000000000000000000000000000000000000000002000000000000000000000000000000000000000000000000000000000000000000000000000020000000000000000000800000000000000000000000000000000000000000000000000000000000000000000000000000000000000000000000000000000000100000000000000000000000000000000000000000000000000000000000002000000000000000000000000000000000008000000000001000020000000000000000000000000000000000000080000000000000000080000000000",
      "type": "0x2",
      "transactionHash": "0xe2beb96bc7e493b370ed221f1ee10380de0ecb7fff18cd96d3a524597a3b81a9",
      "transactionIndex": "0x0",
      "blockHash": "0xde2cd232dd5a1d2f865c2a291f6f46424aa5894f4cee25c92a9d06f91a21d71a",
      "blockNumber": "0x252d48d",
      "gasUsed": "0xc79b",
      "effectiveGasPrice": "0x24b96",
      "from": "0xd48bd608f4c35a7dfb2ca93bbf8d8495e84835a5",
      "to": "0x1e8f843b32c121675a32894d2d85d905857d8dad",
      "contractAddress": null
    },
    {
      "status": "0x1",
      "cumulativeGasUsed": "0x321dee7",
      "logs": [
        {
          "address": "0x1e8f843b32c121675a32894d2d85d905857d8dad",
          "topics": [
            "0x17307eab39ab6107e8899845ad3d59bd9653f200f220920489ca2b5937696c31",
            "0x000000000000000000000000d48bd608f4c35a7dfb2ca93bbf8d8495e84835a5",
            "0x0000000000000000000000001e8f843b32c121675a32894d2d85d905857d8dad"
          ],
          "data": "0x0000000000000000000000000000000000000000000000000000000000000001",
          "blockHash": "0xde2cd232dd5a1d2f865c2a291f6f46424aa5894f4cee25c92a9d06f91a21d71a",
          "blockNumber": "0x252d48d",
          "transactionHash": "0x7e96212551cc831df909ebb41ddf52fe47fff5441bc622078ed9fdddaffff5e1",
          "transactionIndex": "0x1",
          "logIndex": "0x0",
          "removed": false
        }
      ],
      "logsBloom": "0x00000000000000000000000008000000800000000000000000000080000000000800000000000000000000000000000000000000000000000000000000000000000000000000000000000000000000000000000000000000000000000000000002000000000000000000000000000000400000000000000000000000000000000000000000000000000000000000000000000000000000000000000000000000000000000100000000000000000000000000000000000000000000000000000000000002000000000000000000000000000000000000000000000001000000000000200800000000000000000000000000080000000000000000000000000000",
      "type": "0x2",
      "transactionHash": "0x7e96212551cc831df909ebb41ddf52fe47fff5441bc622078ed9fdddaffff5e1",
      "transactionIndex": "0x1",
      "blockHash": "0xde2cd232dd5a1d2f865c2a291f6f46424aa5894f4cee25c92a9d06f91a21d71a",
      "blockNumber": "0x252d48d",
      "gasUsed": "0xb4b4",
      "effectiveGasPrice": "0x24b96",
      "from": "0xd48bd608f4c35a7dfb2ca93bbf8d8495e84835a5",
      "to": "0x1e8f843b32c121675a32894d2d85d905857d8dad",
      "contractAddress": null
    },
    {
      "status": "0x1",
      "cumulativeGasUsed": "0x324d63b",
      "logs": [
        {
          "address": "0x1e8f843b32c121675a32894d2d85d905857d8dad",
          "topics": [
            "0xc3d58168c5ae7397731d063d5bbf3d657854427343f4c083240f7aacaa2d0f62",
            "0x000000000000000000000000d48bd608f4c35a7dfb2ca93bbf8d8495e84835a5",
            "0x000000000000000000000000d48bd608f4c35a7dfb2ca93bbf8d8495e84835a5",
            "0x0000000000000000000000001e8f843b32c121675a32894d2d85d905857d8dad"
          ],
          "data": "0x00000000000000000000000000000000000000000000000000000000000000010000000000000000000000000000000000000000000000000000000000000032",
          "blockHash": "0xde2cd232dd5a1d2f865c2a291f6f46424aa5894f4cee25c92a9d06f91a21d71a",
          "blockNumber": "0x252d48d",
          "transactionHash": "0xcecc67485752e8921b6a62eb882b8c2d7310c3e723815dc14d4c15f85462689e",
          "transactionIndex": "0x2",
          "logIndex": "0x0",
          "removed": false
        }
      ],
      "logsBloom": "0x00000000000000000000000008000000800000000000000000000080000000000800000000000000000000000000000000000000000000000000000000002000000000000000000000000000000000000000000000000000000000000000000000000000000000000000000000000000400000000000000000000000000000000000000000000000000000000000000000000000000000000000000000000000000000000100000000000000000000000000000000000000000000000000000000000002000000000000000000000000000000000008000000000001000000000000000000000000000000000000000000080000000000000000080000000000",
      "type": "0x2",
      "transactionHash": "0xcecc67485752e8921b6a62eb882b8c2d7310c3e723815dc14d4c15f85462689e",
      "transactionIndex": "0x2",
      "blockHash": "0xde2cd232dd5a1d2f865c2a291f6f46424aa5894f4cee25c92a9d06f91a21d71a",
      "blockNumber": "0x252d48d",
      "gasUsed": "0x3ac08",
      "effectiveGasPrice": "0x24b96",
      "from": "0xd48bd608f4c35a7dfb2ca93bbf8d8495e84835a5",
      "to": "0x1e8f843b32c121675a32894d2d85d905857d8dad",
      "contractAddress": null
    }
  ],
  "libraries": [],
  "pending": [],
  "returns": {},
  "timestamp": 1764798553398,
  "chain": 6453,
  "commit": "09206de"
}